S00D00004D6F746F722E7372656306
S113000019C033C032C082C130C02FC02EC02DC031
S11300102CC02BC02AC029C028C033C126C025C08B
S113002024C023C022C021C020C01FC01EC01DC0C8
S11300301CC01BC011241FBECFEFCDBFDFE3DEBF4A
S11300401EE3A0E0BEE3EAECF5E002C005900D92E9
S1130050A830B107D9F72EE3A8E0BEE301C01D9292
S1130060AE30B207E1F7D0D1AEC2CACF4F925F92A1
S11300706F927F92AF92BF92CF92DF92EF92FF92F4
S11300800F931F93CF93DF93CDB7DEB729013A01C6
S11300909B01AC01241935094609570989899A89B4
S11300A0AB89BC89BC01CD016A197B098C099D0906
S11300B027D2A801970124193509460957092FD2D7
S11300C0C601B501620F731F841F951FDF91CF9185
S11300D01F910F91FF90EF90DF90CF90BF90AF9062
S11300E07F906F905F904F900895861797072CF03C
S11300F0481759071CF4CA010895CB010895E0E09C
S1130100F2E082818F608283E0E0FAE08FEF86A3E1
S113011087A38381816083838181876181838081D7
S1130120876080830895E0E4FAE08FEF9FEF84878F
S1130130958781E085838083089588ED84BFE0E618
S1130140F0E091E0918384BF82E0808B08950F9367
S11301501F93009709F049C02091080425FD05C0AC
S11301604B305105610571055CF42091080424FDB0
S113017010C0463F2FEF52076207720734F009C0E0
S11301804CE251E060E070E004C04CE251E060E019
S113019070E08A019B01065F1F4F2F4F3F4F0531CF
S11301A011052105310528F4E0E0FAE010A612A6B5
S11301B01CC04C3221E052076105710531F4E0E0C6
S11301C0FAE02FEF20A722A710C014161506160672
S11301D017062CF4E0E0FAE040A712A606C0E0E01F
S11301E0FAE010A6242F209522A7019709F046C013
S11301F08091080486FD05C04B30510561057105E9
S11302005CF480910804882384F0463F8FEF5807FC
S11302106807780734F009C04CE251E060E070E010
S113022004C04CE251E060E070E0DB01CA010A96D0
S1130230A11DB11D4597A105B10528F4E0E0FAE040
S113024014A611A61BC04C3221E0520761057105AA
S113025031F4E0E0FAE08FEF84A781A70FC0141611
S11302601506160617062CF4E0E0FAE044A711A6DA
S113027005C0E0E0FAE014A6409541A71F910F9154
S113028008951F920F920FB60F9211248F939F938C
S1130290AF93BF93EF93FF938091083E9091093EF3
S11302A08130910589F41092083E1092093E8EEA3D
S11302B09BE3A0E0B0E08093043E9093053EA093BE
S11302C0063EB093073E12C0029781F41092083E96
S11302D01092093E8EEA9BE3A0E0B0E08093003EDA
S11302E09093013EA093023EB093033EE6E4FAE00D
S11302F0808181608083FF91EF91BF91AF919F9145
S11303008F910F900FBE0F901F9018951F920F9210
S11303100FB60F9211248F939F93AF93BF93EF93D4
S1130320FF938091090481FF30C0E0E0F4E082E0B3
S11303308187808581FF11C08091083E9091093E9C
S1130340892B19F510924A0A10924B0A81E090E029
S11303508093083E9093093E18C08091083E909186
S1130360093E019791F41092083E1092093E809143
S11303704A0A90914B0AA0E0B0E08093043E909327
S1130380053EA093063EB093073E8091090482FF88
S113039030C0E0E0F4E084E08187808582FF11C012
S11303A08091083E9091093E892B19F510924A0AD2
S11303B010924B0A82E090E08093083E9093093EAD
S11303C018C08091083E9091093E029791F41092D2
S11303D0083E1092093E80914A0A90914B0AA0E08F
S11303E0B0E08093003E9093013EA093023EB09310
S11303F0033EFF91EF91BF91AF919F918F910F9029
S11304000FBE0F901F901895E0E0F4E080811082F9
S113041081898960818B82898960828BE0E2F4E042
S1130420808188638083E0E4F4E080818860808355
S113043084DE79DE64DE789440910C3E50910D3E6A
S1130440052E000C660B770B80E090E080DE409177
S11304500A3E50910B3E052E000C660B770B81E093
S113046090E075DE6091043E7091053E8091063EF9
S11304709091073E1F921F921F92CFEFCF93AA2411
S1130480A394BB24BA94CB2CDB2C18E1E12E10E509
S1130490F12E00E010E024E437E240E050E0E6DD35
S11304A00F900F900F900F90DC01CB014FEF50E0B5
S11304B061E07FEF1ADE80930C3E90930D3E6091D5
S11304C0003E7091013E8091023E9091033E1F9246
S11304D01F921F92CF9324E437E240E050E0C6DD40
S11304E00F900F900F900F90DC01CB014FEF50E075
S11304F061E07FEFFADD80930A3E90930B3E9CCF40
S1130500DB018F939F9327D0BF91AF91A29F800D62
S1130510911DA39F900DB29F900D11240895052E57
S113052097FB16F400940FD057FD05D01ED007FC9E
S113053002D046F408C050954095309521953F4F20
S11305404F4F5F4F089590958095709561957F4FBB
S11305508F4F9F4F08952BD0A59F900DB49F900D62
S1130560A49F800D911D11240895A1E21A2EAA1BA7
S1130570BB1BFD010DC0AA1FBB1FEE1FFF1FA2174F
S1130580B307E407F50720F0A21BB30BE40BF50B4C
S1130590661F771F881F991F1A9469F760957095D5
S11305A0809590959B01AC01BD01CF010895A29F58
S11305B0B001B39FC001A39F01D0B29F700D811DF4
S10D05C01124911D0895F894FFCF53
S10B05CAAE3B0000AE3B000053
S9030000FC
