:100000001FC02EC02DC02CC02BC02AC029C028C0A4
:1000100027C026C025C024C023C0FBC021C020C0EB
:100020001FC01EC01DC01CC01BC01AC007C118C005
:1000300017C016C06364696E6F70737578585B0083
:1000400011241FBECFEFCDBFDFE3DEBF2EE3A0E064
:10005000BEE301C01D92A634B207E1F748D1D9C86A
:10006000CFCF4F925F926F927F92AF92BF92CF921B
:10007000DF92EF92FF920F931F93CF93DF93CDB751
:10008000DEB729013A019B01AC0124193509460963
:10009000570989899A89AB89BC89BC01CD016A1944
:1000A0007B098C099D093AD2A801970124193509C9
:1000B0004609570942D2C601B501620F731F841F5A
:1000C000951FDF91CF911F910F91FF90EF90DF90DF
:1000D000CF90BF90AF907F906F905F904F900895BA
:1000E000E0E0F2E082818F608283E0E0FAE08FEF6F
:1000F00086A387A3838181608383818187618183D4
:10010000808187608083089588ED84BFE0E6F0E019
:10011000118284BF82E0808B08950F931F93009714
:10012000D9F52091080424FD05C04B305105610527
:1001300071055CF42091080425FD0EC0463F2FEFA9
:100140005207620772072CF007C040E050E0BA0186
:1001500003C040E050E0BA018A019B01065F1F4FD7
:100160002F4F3F4F053111052105310528F4E0E0FF
:10017000FAE010A612A610C01416150616061706E9
:100180002CF4E0E0FAE040A712A606C0E0E0FAE0B6
:1001900010A6242F209522A70197C1F5809108046D
:1001A00086FD05C04B305105610571055CF48091F9
:1001B0000804882374F0463F8FEF580768077807D4
:1001C0002CF007C040E050E0BA0103C040E050E02E
:1001D000BA01DB01CA010A96A11DB11D4597A1050F
:1001E000B10528F4E0E0FAE014A611A60FC0141639
:1001F0001506160617062CF4E0E0FAE044A711A64F
:1002000005C0E0E0FAE014A6409541A71F910F91C8
:1002100008951F920F920FB60F9211248F93EF93B0
:10022000FF93E6E4FAE0808181608083FF91EF91A3
:100230008F910F900FBE0F901F9018951F920F92E5
:100240000FB60F9211242F938F939F93AF93BF9369
:10025000EF93FF93809104088823C4F580910008F0
:100260008A3031F09091033E933110F4811123C014
:10027000E0E2F4E0878180648783E091033EF0E070
:10028000E75FF14C10821092033E8091023E8F5F37
:100290008093023E80E090E00AC0FC01E75FF14CF1
:1002A0002081DC01AE5CB14C2C931082019684312C
:1002B00091059CF30BC0E091033EF0E0E75FF14C49
:1002C00080838091033E8F5F8093033EE4E0F8E0FB
:1002D000808180688083FF91EF91BF91AF919F9162
:1002E0008F912F910F900FBE0F901F901895E0E007
:1002F000F4E080811082E0E2F4E080818863808312
:10030000E0E4F4E0808188608083FEDEE9DED0D026
:1003100086E192E9F1D078948091023E8823E1F35E
:100320008091323E813209F0C0C06CE172E982E313
:100330009EE357D1EC016EE172E957D1892B09F0A8
:1003400042C06CE172E980E090E04BD128E03EE3EE
:100350003F932F9321E232E93F932F939F938F9303
:1003600093D16091083E70E080E090E01F921F9270
:100370001F922FEF2F93AA24A394BB24BA94CB2CC3
:10038000DB2CE12CF12C8701EA9420E030E0A9017C
:1003900068DE0F900F900F900F906093063E709361
:1003A000073E4091063E5091073E052E000C660B1D
:1003B000770B80E090E0B1DE0F900F900F900F90E0
:1003C0000F900F9072C067E272E9CE010ED1892BB7
:1003D00009F042C06CE172E980E090E002D128E0CF
:1003E0003EE33F932F9321E232E93F932F939F9374
:1003F0008F934AD16091083E70E080E090E01F92B8
:100400001F921F922FEF2F93AA24A394BB24BA9478
:10041000CB2CDB2CE12CF12C8701EA9420E030E09E
:10042000A9011FDE0F900F900F900F906093043E74
:100430007093053E4091043E5091053E052E000C00
:10044000660B770B81E090E068DE0F900F900F90C5
:100450000F900F900F9029C06AE272E9CE01C5D0CB
:10046000892B19F58091080490E080959095807F04
:1004700099279595879595958795959587959595C0
:1004800087959F938F938DE292E99F938F938EE14F
:100490009EE39F938F93D9D08EE19EE32DD00F9052
:1004A0000F900F900F900F900F901092023E34CF4C
:1004B000E0E0F4E082E08183868384E082838289C5
:1004C000877F828BE0E0F2E0818181608183E0E0E0
:1004D000F8E086E490E18087918780E8858380EC6E
:1004E000868383E0878380E008959091040895FFD8
:1004F000FCCF8093020808950F931F93CF938C0134
:10050000C0E002C0F2DFCF5FF801EC0FF11D808187
:100510008111F8CFCF911F910F910895DB018F9337
:100520009F9327D0BF91AF91A29F800D911DA39F54
:10053000900DB29F900D11240895052E97FB16F48F
:1005400000940FD057FD05D01ED007FC02D046F412
:1005500008C050954095309521953F4F4F4F5F4FC4
:10056000089590958095709561957F4F8F4F9F4F1F
:1005700008952BD0A59F900DB49F900DA49F800D42
:10058000911D11240895A1E21A2EAA1BBB1BFD0187
:100590000DC0AA1FBB1FEE1FFF1FA217B307E40762
:1005A000F50720F0A21BB30BE40BF50B661F771FBA
:1005B000881F991F1A9469F760957095809590959A
:1005C0009B01AC01BD01CF010895A29FB001B39F73
:1005D000C001A39F01D0B29F700D811D1124911DF8
:1005E000089540E05EE30AD00895FB01DC018D919F
:1005F000019080190110D9F3990B0895FA01A19186
:10060000B081009719F41097E1F0CD01DC01CD0124
:100610000D90002011F4C00113C0FB012191222391
:1006200019F02015D9F7F3CFFB012191201519F40A
:100630001E92119606C02223C1F70D900020A1F74B
:10064000D001FA01A193B0830895AEE0B0E0EAE2F0
:10065000F3E0BCC50D891E8986E08C8309831A836B
:100660008FEF9FE78D839E83AE01475E5F4F6F895B
:10067000788DCE0101961ED0EF81F885E00FF11F35
:1006800010822E96E4E0BBC5AEE0B0E0E9E4F3E012
:100690009FC585E08C838B899C8989839A83AE0171
:1006A000495E5F4F6D897E89CE01019662D32E9699
:1006B000E2E0A7C5ABE0B0E0EFE5F3E079C56C019F
:1006C0007B018A01FC0116821782838181FFBFC1F1
:1006D000CE0101963C01F6019381F70193FD8591CE
:1006E00093FF81917F01882309F4ADC1853239F4EC
:1006F00093FD859193FF81917F01853221F4B601AD
:1007000090E0A0D4E8CF912C212C312CFFE1F315FF
:10071000D8F08B3279F038F4803279F08332A1F45A
:10072000232D20611DC08D3261F0803369F4232DAB
:10073000216016C0832D8260382EE32DE4603E2EAA
:100740002AC0F32DF8601DC037FC2DC020ED280F06
:100750002A3040F08E32B9F436FC75C1232D206466
:10076000322E19C036FE06C08AE0989E200D112454
:10077000922E11C0EAE02E9E200D1124222EF32D80
:10078000F0623F2E08C08C3621F4832D8068382E0D
:1007900002C0883641F4F70193FD859193FF819162
:1007A0007F018111B3CF982F9F7D9554933028F40A
:1007B0000C5F1F4F9FE399830DC0833631F0833761
:1007C00071F0833509F055C020C0F801808189831C
:1007D0000E5F1F4F88248394912C530112C028016F
:1007E000F2E04F0E511CF801A080B18036FE03C02C
:1007F000692D70E002C06FEF7FEFC501DAD34C01C5
:100800008201F32DFF773F2E15C0280122E0420E12
:10081000511CF801A080B18036FE03C0692D70E044
:1008200002C06FEF7FEFC501B9D34C01F32DF06823
:100830003F2E820133FC19C0822D90E08816990664
:10084000A0F4B60180E290E0FDD32A94F5CFF50143
:1008500037FC859137FE81915F01B60190E0F2D3BC
:1008600021102A9421E0821A91088114910479F7C9
:10087000E1C0843611F0893639F5F80137FE07C03A
:1008800060817181828193810C5F1F4F08C06081FC
:100890007181072E000C880B990B0E5F1F4FF32DF3
:1008A000FF763F2E97FF09C09095809570956195D2
:1008B0007F4F8F4F9F4FF0683F2E2AE030E0A3011B
:1008C00016D4882E861844C0853731F4232D2F7E08
:1008D000B22E2AE030E025C0932D997FB92E8F36B5
:1008E000C1F018F4883579F0AEC0803719F0883738
:1008F00021F0A9C0E92FE061BE2EB4FE0DC0FB2D92
:10090000F460BF2E09C034FE0AC0292F2660B22E23
:1009100006C028E030E005C020E130E002C020E160
:1009200032E0F801B7FE07C0608171818281938156
:100930000C5F1F4F06C06081718180E090E00E5F08
:100940001F4FA301D4D3882E8618FB2DFF773F2E8F
:1009500036FE0DC0232D2E7FA22E891458F434FEAE
:100960000BC032FC09C0832D8E7EA82E05C0B82C8A
:10097000A32C03C0B82C01C0B92CA4FE0FC0FE01EB
:10098000E80DF11D8081803321F49A2D997EA92EE6
:1009900009C0A2FE06C0B394B39404C08A2D867821
:1009A00009F0B394A3FC10C0A0FE06C0B21480F4FA
:1009B000280C922C9B180DC0B21458F4B60180E29A
:1009C00090E040D3B394F8CFB21418F42B1802C0BF
:1009D000982C212CA4FE0FC0B60180E390E032D306
:1009E000A2FE16C0A1FC03C088E790E002C088E523
:1009F00090E0B6010CC08A2D867851F0A1FE02C0AD
:100A00008BE201C080E2A7FC8DE2B60190E01AD330
:100A1000891430F4B60180E390E014D39A94F8CFAF
:100A20008A94F301E80DF11D8081B60190E00AD3AC
:100A30008110F6CF222009F44ECEB60180E290E07C
:100A400001D32A94F7CFF6018681978102C08FEFF8
:100A50009FEF2B96E2E1C5C320FD09C0FC0123FDF9
:100A600005C022FF02C073836283518340830895CF
:100A700044FD17C046FD17C0AB01BC01DA01FB0104
:100A8000AA0FBB1FEE1FFF1F1094D1F74A0F5B1F69
:100A90006E1F7F1FCB01BA01660F771F881F991F3A
:100AA00009C033E001C034E0660F771F881F991F2B
:100AB0003150D1F7620F711D811D911D08950F9363
:100AC0001F93CF93DF938C01C8017ED2EC0197FD79
:100AD00006C050D2892BC1F7B801CE01EFD2CE01AA
:100AE000DF91CF911F910F9108958F929F92AF92B6
:100AF000BF92EF92FF920F931F93CF93DF938C01DE
:100B0000D62F7A01B22E60D29C0133272B323105C9
:100B100031F02D32310559F48B2D8068B82ED1502B
:100B200011F480E061C0C8014FD297FDFACFCB2D00
:100B3000CD7F2B2D2073F9F48033E9F4AA24AA94F5
:100B4000AD0E09F43EC0C8013FD297FD3AC09C01EA
:100B50002F7D33272835310541F4C264D25089F105
:100B6000C80132D297FF07C02CC0B6FE02C0C260D7
:100B700001C0C261DA2D812C912C540120ED280F87
:100B8000283078F0C4FF03C0B80198D217C02A30CB
:100B900040F0C6FFF9CF2F7D3FEE320F3630A0F781
:100BA00027504C2FC501B40163DF4B015C01C260CB
:100BB000D15051F0C80108D297FFE0CFC1FD04C069
:100BC000B0CF812C912C5401C7FF08C0B094A094E1
:100BD00090948094811C911CA11CB11C2C2FB501F8
:100BE000A401C70139DF81E0DF91CF911F910F91FF
:100BF000FF90EF90BF90AF909F908F900895A0E2EC
:100C0000B0E0E4E0F6E0D7C25C01962E7A01F9018B
:100C10008E010F5F1F4F680180E2D8011D928A95F7
:100C2000E9F7D50113968C9080E090E0612C712C4F
:100C300030E061E070E083FC259183FE21918F011B
:100C4000522E211103C080E090E090C02E3511F4A7
:100C5000009751F1432F50E0481759073CF42D35C8
:100C600059F12D3219F4772009F103C0772009F4E6
:100C700068C0452D469546954695D601A40FB11DF1
:100C8000452D47708B0102C0000F111F4A95E2F7F6
:100C9000A8015C91452B4C93651459F0561410F43F
:100CA0005394E7CF5A94E5CF31E004C0772473948E
:100CB00001C0712C0196BFCF772019F08E81806220
:100CC0008E83311103C08824839417C0F6019E01DE
:100CD0002F5D3F4F8081809581932E173F07D1F77D
:100CE000F2CFE114F10429F0D7018C93F70131968A
:100CF0007F019A94812C9920E9F0C50165D197FD77
:100D000017C0FC01FF2723E0F595E7952A95E1F749
:100D1000EC0DFD1D208130E0AC014770552702C06D
:100D2000359527954A95E2F720FDDBCFB501C6D171
:100D3000811089CFE114F10411F0D7011C92C80190
:100D400015C0422F469546954695D601A40FB11D74
:100D5000422F47708B0102C0000F111F4A95E2F726
:100D6000A8015C91452B4C93622EA4CFA096EFE096
:100D70003BC2A0E0B0E0EEEBF6E01DC26C01EB017F
:100D80005A01FC0116821782512CF601E380FE0104
:100D9000E3FC8591E3FE8191182FEF01882309F48C
:100DA000E0C090E0E7D0892B19F0C60188DEEDCFD6
:100DB000153241F4FE01E3FC1591E3FE1191EF01C0
:100DC000153271F4C60100D197FDC9C0412F50E022
:100DD0009C01332724173507C1F2B6016FD1C1C07A
:100DE0001A3239F4E3FC1591E3FE1191EF0101E0B1
:100DF00001C000E0F12C20ED210F2A3078F40260D0
:100E00006F2D70E080E090E040E232DEF62EFE01D1
:100E1000E3FC1591E3FE1191EF01EDCF01FF03C05B
:100E2000F11003C09EC0FF24FA94183619F01C3646
:100E300051F010C0FE01E3FC1591E3FE1191EF01AA
:100E4000183641F408600460FE01E3FC1591E3FEEE
:100E50001191EF01112309F484C0612F70E084E344
:100E600090E091D0892B09F47CC000FD07C0F5010A
:100E700080809180C50102965C0102C0812C912C7A
:100E80001E3649F4F6014681578160E070E0202F5C
:100E9000C401E2DD7ACF1336A1F401FD02C0FF24C4
:100EA000F394C60191D097FD5AC08114910429F0A2
:100EB000F4018083C40101964C01FA94F110F1CF42
:100EC0004AC01B3551F49E01A4016F2DC60197DE67
:100ED000EC01892B09F03FC039C0C601F0DD97FD58
:100EE0003EC01F3649F128F4143621F1193639F184
:100EF00025C0133771F01537E9F020C08114910433
:100F000029F0F4016082C40101964C01FA94FF209B
:100F100059F0C60159D03C0197FD06C02BD0892B52
:100F200069F3B601C301CAD081149104A1F0F401A0
:100F3000108211C0006203C0006101C00064202F54
:100F4000A4016F2DC601D1DD811105C0F601838199
:100F5000807329F406C000FD18CF539416CF552096
:100F600019F0852D90E002C08FEF9FEFCDB7DEB76F
:100F7000EFE03AC191110C94D508803219F08950F4
:100F80008550C8F70895FC010590061621F0002051
:100F9000D9F7C00108953197CF010895FC0105905C
:100FA000615070400110D8F7809590958E0F9F1F6B
:100FB0000895FC016150704001900110D8F78095B0
:100FC00090958E0F9F1F0895CF93DF93EC012B8197
:100FD00020FF33C026FF0AC02F7B2B838E819F8189
:100FE00001968E839F838A8190E029C022FF0FC0E3
:100FF000E881F9818081082E000C990B009719F483
:1010000020622B831AC03196E883F9830EC0EA85EB
:10101000FB85099597FF09C02B81019611F080E2AD
:1010200001C080E1822B8B8308C02E813F812F5F1E
:101030003F4F2E833F83992702C08FEF9FEFDF91B1
:10104000CF9108950F931F93CF93DF93FB012381DB
:1010500021FD03C08FEF9FEF2CC022FF16C04681F9
:101060005781248135814217530744F4A081B1810F
:101070009D012F5F3F4F208331838C9326813781E1
:101080002F5F3F4F2683378314C08B01EC01FB0198
:101090000084F185E02D0995892BE1F6D80116969B
:1010A0008D919C911797019616968D939C93179707
:1010B000CE01DF91CF911F910F910895FB01238104
:1010C00020FF12C026FD10C08F3F3FEF930761F055
:1010D00082832F7D2064238326813781215031092B
:1010E00026833783992708958FEF9FEF0895FA019C
:1010F000AA27283051F1203181F1E8946F936E7F57
:101100006E5F7F4F8F4F9F4FAF4FB1E03ED0B4E047
:101110003CD0670F781F891F9A1FA11D680F791F88
:101120008A1F911DA11D6A0F711D811D911DA11D99
:1011300020D009F468943F912AE0269F11243019A9
:10114000305D3193DEF6CF010895462F4770405D44
:101150004193B3E00FD0C9F7F6CF462F4F70405DF3
:101160004A3318F0495D31FD4052419302D0A9F74E
:10117000EACFB4E0A6959795879577956795BA9548
:10118000C9F700976105710508959B01AC010A2E0E
:1011900006945795479537952795BA95C9F7620FE5
:1011A000731F841F951FA01D0895992788270895F0
:1011B0002F923F924F925F926F927F928F929F9267
:1011C000AF92BF92CF92DF92EF92FF920F931F9355
:1011D000CF93DF93CDB7DEB7CA1BDB0BCDBFDEBF2E
:1011E00009942A88398848885F846E847D848C8439
:1011F0009B84AA84B984C884DF80EE80FD800C8142
:101200001B81AA81B981CE0FD11DCDBFDEBFED01FB
:061210000895F894FFCFE1
:101216007374617274003F00217800253268687823
:0E1226000021790021730021733F25780A0012
:00000001FF
