:100000001FC039C038C037C036C035C034C033C057
:1000100032C031C030C02FC02EC02EC12CC02BC06A
:100020002AC029C028C027C026C025C03AC123C085
:1000300022C021C06364696E6F70737578585B006D
:1000400011241FBECFEFCDBFDFE3DEBF1EE3A0E074
:10005000BEE3E1E8FCE002C005900D92A030B107DC
:10006000D9F72EE3A0E0BEE301C01D92A033B20792
:10007000E1F76BD1FBC5C4CF4F925F926F927F9235
:10008000AF92BF92CF92DF92EF92FF920F931F93A6
:10009000CF93DF93CDB7DEB729013A019B01AC01C5
:1000A000241935094609570989899A89AB89BC8978
:1000B000BC01CD016A197B098C099D09FDD1A801FC
:1000C0009701241935094609570905D2C601B5011A
:1000D000620F731F841F951FDF91CF911F910F91A6
:1000E000FF90EF90DF90CF90BF90AF907F906F9098
:1000F0005F904F900895861797072CF0481759077F
:100100001CF4CA010895CB010895E0E0F2E0828179
:100110008F608283E0E0FAE08FEF86A387A383817C
:10012000816083838181876181838081876080830F
:10013000089588ED84BFE0E6F0E0118284BF82E09C
:10014000808B08950F931F93009709F049C0209169
:10015000080424FD05C04B305105610571055CF4B0
:100160002091080425FD10C0463F2FEF520762077B
:10017000720734F009C04CE251E060E070E004C066
:100180004CE251E060E070E08A019B01065F1F4F86
:100190002F4F3F4F053111052105310528F4E0E0CF
:1001A000FAE010A612A61CC04C3221E052076105ED
:1001B000710531F4E0E0FAE02FEF20A722A710C08C
:1001C00014161506160617062CF4E0E0FAE040A710
:1001D00012A606C0E0E0FAE010A6242F209522A780
:1001E000019709F046C08091080486FD05C04B3098
:1001F0005105610571055CF480910804882384F041
:10020000463F8FEF58076807780734F009C04CE283
:1002100051E060E070E004C04CE251E060E070E06A
:10022000DB01CA010A96A11DB11D4597A105B105C3
:1002300028F4E0E0FAE014A611A61BC04C3221E03D
:1002400052076105710531F4E0E0FAE08FEF84A711
:1002500081A70FC014161506160617062CF4E0E049
:10026000FAE044A711A605C0E0E0FAE014A6409524
:1002700041A71F910F9108951F920F920FB60F92F1
:1002800011248F93EF93FF93E6E4FAE0808181607D
:100290008083FF91EF918F910F900FBE0F901F9071
:1002A00018951F920F920FB60F9211242F938F93D0
:1002B0009F93AF93BF93EF93FF938091040888239C
:1002C000C4F5809100088A3031F09091033E93315B
:1002D00010F4811123C0E0E2F4E087818064878319
:1002E000E091033EF0E0E95FF14C10821092033E92
:1002F0008091023E8F5F8093023E80E090E00AC0D2
:10030000FC01E95FF14C2081DC01A45EB14C2C932F
:1003100010820196843191059CF30BC0E091033E5D
:10032000F0E0E95FF14C80838091033E8F5F809322
:10033000033EFF91EF91BF91AF919F918F912F91CC
:100340000F900FBE0F901F901895E0E0F4E08081B1
:100350001082E0E2F4E0808188678083E0E4F4E0EA
:10036000808188608083E5DED0DE70D080E79CE805
:1003700091D078948091023E8823E1F380911C3ED5
:10038000813209F060C066E77CE88CE19EE3F7D03B
:1003900068E77CE8F8D0892B09F055C066E77CE86F
:1003A00080E090E0ECD026E03EE33F932F932BE7F4
:1003B0003CE83F932F939F938F9315D18091063EF6
:1003C0008F578093063E4FE750E061E87FEF90E063
:1003D00092DE8093043E9093053E6091043E7091BE
:1003E000053E072E000C880B990B1F921F921F923F
:1003F0002FEF2F93AA24A394BB24BA94CB2CDB2CED
:100400001FE7E12EF12C00E010E021E83FEF4FEF75
:100410005FEF32DE0F900F900F900F906093043ECD
:100420007093053E4091043E5091053E052E000C10
:10043000660B770B80E090E085DE0F900F900F90B9
:100440000F900F900F901092023E94CFE0E0F4E0F6
:1004500082E08183868384E082838289877F828BA6
:10046000E0E0F2E0818181608183E0E0F8E086E411
:1004700090E18087918780E8858380EC868383E0A4
:10048000878380E008959091040895FFFCCF8093C6
:10049000020808950F931F93CF938C01C0E002C010
:1004A000F2DFCF5FF801EC0FF11D80818111F8CFF1
:1004B000CF911F910F910895DB018F939F9327D0C8
:1004C000BF91AF91A29F800D911DA39F900DB29FF0
:1004D000900D11240895052E97FB16F400940FD06B
:1004E00057FD05D01ED007FC02D046F408C0509539
:1004F0004095309521953F4F4F4F5F4F0895909510
:100500008095709561957F4F8F4F9F4F08952BD0A9
:10051000A59F900DB49F900DA49F800D911D112457
:100520000895A1E21A2EAA1BBB1BFD010DC0AA1F34
:10053000BB1FEE1FFF1FA217B307E407F50720F04C
:10054000A21BB30BE40BF50B661F771F881F991FC7
:100550001A9469F760957095809590959B01AC0110
:10056000BD01CF010895A29FB001B39FC001A39F19
:1005700001D0B29F700D811D1124911D089540E09E
:100580005EE30AD00895FB01DC018D910190801992
:100590000110D9F3990B0895FA01A191B081009748
:1005A00019F41097E1F0CD01DC01CD010D90002090
:1005B00011F4C00113C0FB012191222319F0201571
:1005C000D9F7F3CFFB012191201519F41E92119652
:1005D00006C02223C1F70D900020A1F7D001FA0137
:1005E000A193B0830895AEE0B0E0E8EFF2E01DC360
:1005F00085E08C838B899C8989839A83AE01495ECF
:100600005F4F6D897E89CE01019690D12E96E2E0F2
:1006100025C320FD09C0FC0123FD05C022FF02C047
:100620007383628351834083089544FD17C046FD60
:1006300017C0AB01BC01DA01FB01AA0FBB1FEE1F03
:10064000FF1F1094D1F74A0F5B1F6E1F7F1FCB0156
:10065000BA01660F771F881F991F09C033E001C0D8
:1006600034E0660F771F881F991F3150D1F7620F52
:10067000711D811D911D08950F931F93CF93DF93DB
:100680008C01C80168D2EC0197FD06C050D2892BBD
:10069000C1F7B801CE019DD2CE01DF91CF911F915C
:1006A0000F9108958F929F92AF92BF92EF92FF9217
:1006B0000F931F93CF93DF938C01D62F7A01B22E25
:1006C0004AD29C0133272B32310531F02D323105CE
:1006D00059F48B2D8068B82ED15011F480E061C0A0
:1006E000C80139D297FDFACFCB2DCD7F2B2D2073AA
:1006F000F9F48033E9F4AA24AA94AD0E09F43EC0BB
:10070000C80129D297FD3AC09C012F7D3327283597
:10071000310541F4C264D25089F1C8011CD297FF5F
:1007200007C02CC0B6FE02C0C26001C0C261DA2D93
:10073000812C912C540120ED280F283078F0C4FF33
:1007400003C0B80146D217C02A3040F0C6FFF9CF27
:100750002F7D3FEE320F3630A0F727504C2FC501CA
:10076000B40163DF4B015C01C260D15051F0C8019C
:10077000F2D197FFE0CFC1FD04C0B0CF812C912C06
:100780005401C7FF08C0B094A09490948094811C39
:10079000911CA11CB11C2C2FB501A401C70139DF8C
:1007A00081E0DF91CF911F910F91FF90EF90BF906B
:1007B000AF909F908F900895A0E2B0E0E1EEF3E05B
:1007C00027C25C01962E7A01F9018E010F5F1F4F3F
:1007D000680180E2D8011D928A95E9F7D501139648
:1007E0008C9080E090E0612C712C30E061E070E052
:1007F00083FC259183FE21918F01522E211103C08C
:1008000080E090E090C02E3511F4009751F1432F15
:1008100050E0481759073CF42D3559F12D3219F4A1
:10082000772009F103C0772009F468C0452D46956B
:1008300046954695D601A40FB11D452D47708B01F5
:1008400002C0000F111F4A95E2F7A8015C91452BE9
:100850004C93651459F0561410F45394E7CF5A94FE
:10086000E5CF31E004C07724739401C0712C019668
:10087000BFCF772019F08E8180628E83311103C043
:100880008824839417C0F6019E012F5D3F4F80811D
:10089000809581932E173F07D1F7F2CFE114F10431
:1008A00029F0D7018C93F70131967F019A94812C1E
:1008B0009920E9F0C5014FD197FD17C0FC01FF2732
:1008C00023E0F595E7952A95E1F7EC0DFD1D2081D4
:1008D00030E0AC014770552702C0359527954A9501
:1008E000E2F720FDDBCFB50174D1811089CFE1148F
:1008F000F10411F0D7011C92C80115C0422F469592
:1009000046954695D601A40FB11D422F47708B0125
:1009100002C0000F111F4A95E2F7A8015C91452B18
:100920004C93622EA4CFA096EFE08BC1A0E0B0E084
:10093000EBE9F4E06DC16C01EB015A01FC01168298
:100940001782512CF601E380FE01E3FC8591E3FE62
:100950008191182FEF01882309F4E0C090E0E7D0DF
:10096000892B19F0C60188DEEDCF153241F4FE0166
:10097000E3FC1591E3FE1191EF01153271F4C6010C
:10098000EAD097FDC9C0412F50E09C0133272417BE
:100990003507C1F2B6011DD1C1C01A3239F4E3FCEA
:1009A0001591E3FE1191EF0101E001C000E0F12C8F
:1009B00020ED210F2A3078F402606F2D70E080E086
:1009C00090E040E232DEF62EFE01E3FC1591E3FEFC
:1009D0001191EF01EDCF01FF03C0F11003C09EC0E4
:1009E000FF24FA94183619F01C3651F010C0FE019D
:1009F000E3FC1591E3FE1191EF01183641F4086014
:100A00000460FE01E3FC1591E3FE1191EF01112357
:100A100009F484C0612F70E084E390E091D0892BC9
:100A200009F47CC000FD07C0F50180809180C501FC
:100A300002965C0102C0812C912C1E3649F4F6010D
:100A40004681578160E070E0202FC401E2DD7ACF5B
:100A50001336A1F401FD02C0FF24F394C6017BD03C
:100A600097FD5AC08114910429F0F4018083C401D8
:100A700001964C01FA94F110F1CF4AC01B3551F4A4
:100A80009E01A4016F2DC60197DEEC01892B09F0B0
:100A90003FC039C0C601F0DD97FD3EC01F3649F1A9
:100AA00028F4143621F1193639F125C0133771F0C5
:100AB0001537E9F020C08114910429F0F401608217
:100AC000C40101964C01FA94FF2059F0C60143D0AD
:100AD0003C0197FD06C02BD0892B69F3B601C301F9
:100AE00078D081149104A1F0F401108211C0006249
:100AF00003C0006101C00064202FA4016F2DC60156
:100B0000D1DD811105C0F6018381807329F406C00F
:100B100000FD18CF539416CF552019F0852D90E085
:100B200002C08FEF9FEFCDB7DEB7EFE08AC0911123
:100B30000C940206803219F089508550C8F7089548
:100B4000FC010590061621F00020D9F7C001089598
:100B50003197CF010895CF93DF93EC012B8120FFD4
:100B600033C026FF0AC02F7B2B838E819F81019685
:100B70008E839F838A8190E029C022FF0FC0E88185
:100B8000F9818081082E000C990B009719F42062DE
:100B90002B831AC03196E883F9830EC0EA85FB8562
:100BA000099597FF09C02B81019611F080E201C0E1
:100BB00080E1822B8B8308C02E813F812F5F3F4FC6
:100BC0002E833F83992702C08FEF9FEFDF91CF9154
:100BD0000895FB01238120FF12C026FD10C08F3F26
:100BE0003FEF930761F082832F7D2064238326816A
:100BF00037812150310926833783992708958FEF54
:100C00009FEF08959927882708952F923F924F923A
:100C10005F926F927F928F929F92AF92BF92CF928C
:100C2000DF92EF92FF920F931F93CF93DF93CDB795
:100C3000DEB7CA1BDB0BCDBFDEBF09942A8839881B
:100C400048885F846E847D848C849B84AA84B98464
:100C5000C884DF80EE80FD800C811B81AA81B98170
:100C6000CE0FD11DCDBFDEBFED010895F894FFCFAB
:100C70007374617274003F002178002532686878CF
:010C80000073
:00000001FF
