:1000000019C020C01FC01EC01DC01CC01BC01AC00C
:1000100019C018C017C016C015C014C013C012C034
:1000200011C010C00FC00EC00DC00CC00BC00AC064
:1000300009C008C011241FBECFEFCDBFDFE3DEBF74
:1000400064D0A9C0DDCFE0E0F2E082818F608283DE
:10005000E0E0FAE08FEF86A387A38381816083834A
:10006000818187618183808187608083089588EDA5
:1000700084BFE0E6F0E091E0918384BF82E0808B72
:100080000895009701F56115710529F4E0E0FAE0A3
:1000900010A612A618C06C3221E0720731F4E0E01D
:1000A000FAE02FEF20A722A70EC0161617062CF491
:1000B000E0E0FAE060A712A606C0E0E0FAE010A6D1
:1000C000262F209522A70197F9F46115710529F4CF
:1000D000E0E0FAE014A611A608956C3281E07807FA
:1000E00031F4E0E0FAE08FEF84A781A708951616B7
:1000F00017062CF4E0E0FAE064A711A60895E0E00A
:10010000FAE014A6609561A70895E0E2F4E080812A
:1001100088638083E0E4F4E0808188608083A7DFE7
:1001200092DF78946FEF70E081E090E0AADF2FE734
:1001300084E89EE1215080409040E1F700C000003B
:100140006CE271E081E090E09CDF2FE78AE196E0CD
:10015000215080409040E1F700C0000061E07FEF57
:1001600081E090E08EDF2FE784E89EE1215080401F
:100170009040E1F700C000006CE271E081E090E0A7
:1001800080DF2FE78AE196E0215080409040E1F740
:0A01900000C00000C7CFF894FFCFB5
:00000001FF
