S00D00004D6F746F722E7372656306
S113000019C028C027C095C025C024C023C022C061
S113001021C020C01FC01EC01DC045C01BC01AC0C7
S113002019C018C017C016C015C014C013C012C020
S113003011C010C011241FBECFEFCDBFDFE3DEBF60
S11300402EE3A0E0BEE301C01D92A830B207E1F7A1
S11300509ED0B8C0D5CFE0E0F2E082818F60828389
S1130060E0E0FAE08FEF86A387A383818160838336
S11300708181876181838081876080830895E0E442
S1130080FAE08BEC90E08487958781E08583808318
S1130090089588ED84BFE0E6F0E091E0918384BFA9
S11300A082E0808B08951F920F920FB60F92112455
S11300B08F939F93AF93BF93EF93FF938091003EF1
S11300C09091013EA091023EB091033E0196A11D84
S11300D0B11D8093003E9093013EA093023EB093E5
S11300E0033E8091043E9091053EA091063EB0915E
S11300F0073E0196A11DB11D8093043E9093053ED9
S1130100A093063EB093073EE0E2F4E08781886066
S11301108783E6E4FAE0808181608083FF91EF9138
S1130120BF91AF919F918F910F900FBE0F901F9031
S113013018951F920F920FB60F9211248F938091EE
S1130140090482FF0CC08091080482FF08C0109249
S1130150003E1092013E1092023E1092033E8091A6
S1130160090481FF0CC08091080481FF08C010922B
S1130170003E1092013E1092023E1092033E82E035
S113018083B98F910F900FBE0F901F901895E0E0E8
S1130190F4E08081108281898160818BE0E2F4E067
S11301A0808188638083E0E4F4E0808188608083D8
S11301B070DF65DF50DF7894E0E2F4E087818860E7
S10B01C08783FACFF894FFCF06
S9030000FC
